:020000040800F2
:100000000050002041000008810000088100000825
:100010008100000881000008810000080000000045
:100020000000000000000000000000008100000847
:10003000810000080000000081000008790100082C
:100040000A480B490B4A914204DA03680B600430FA
:100050000431F8E70849094A0023914202DA0B60AB
:100060000431FAE700F01EF8FEE70000285300080C
:1000700000000020000000200000002008040020F4
:10008000FEE7000008B5D0E90065044600F024F959
:100090004FF0E02300221A61C3F8084D86F3088868
:1000A000A847FEE730B589B000F06EF84FF4E130B4
:1000B00000F088F8062400F0D9FC00F0F9FC962046
:1000C00000F072F8013CF8D105AD00F0E9FC2846DB
:1000D00000F0B2F99DF819304BB1284600F0E0FA73
:1000E00088B3ADF8194095E8070000F051FA9DF883
:1000F000181044F6206000F0DFFB684600F09CF921
:100100002B4600980199029A07C39DF819305BB9F4
:100110009DF81820164C174B012A18BF1C4600F0FA
:10012000B9FC2046FFF7AEFF124A114C6846012B7E
:1001300018BF144695E80E0000F094FA0098019953
:10014000029A07C5EBE795E80E00684600F08AFAC8
:100150000098029A019907C500F09CFC054A044BDF
:100160009DF81900012814BF10461846FFF78AFFB2
:1001700000600008002C0108024A13680133136074
:10018000704700BF000000204FF0E02341F63F70B1
:1001900000210722586199611A617047014B186864
:1001A000704700BF00000020054A116813685B1A01
:1001B000984204D900BF13685B1A8342FAD3704790
:1001C000000000201D4B0001B3FBF0F01C4A4FF073
:1001D000640C916941F004019161D16941F40031ED
:1001E000D161A2F58432116821F470611160116847
:1001F00041F430611160116821F47041116011689F
:1002000041F4804111600F4AA2FB00135B090CFB13
:10021000130000013230B0F5C86F28BF002042F251
:100220000C0134BFA2FB00200133074A38BF40094C
:1002300040EA03109060D160704700BF0008AF2F04
:10024000001002401F85EB510044004069B100EBF3
:10025000010C064A411E0CF1FF3C11F8010F136816
:100260001B06FCD561455060F7D170470044004043
:100270002DE9F04F0C4683B080469246FFF78EFF83
:100280001CB3834608F1FF3800EB0A03114F08EB5B
:1002900004090193FFF782FFA0EB0B03534536BF20
:1002A000019B00251D1AFFF779FF064604E0FFF7C2
:1002B00075FF801B854209D93C6814F02004F6D0F4
:1002C0007B6808F8013FC845E4D10124204603B00B
:1002D000BDE8F08F004400400021044B044AD9607F
:1002E000D36923F40033D361704700BF004400405A
:1002F000001002400B4AD368D907FCD4136909499E
:1003000043F0020313615061136943F0400313612A
:10031000CB68DB07FCD40B69012023F002030B61DF
:10032000704700BF0020024038B50F4B1A69120613
:1003300003D50E490E4A59605A600E4C0E4B0128E7
:1003400008BF1C4604F54C4501E0AC4206D02046EF
:10035000FFF7D0FF04F580640028F6D1024A136944
:1003600043F08003136138BD00200240230167453C
:10037000AB89EFCD002C0108006000081C4B30B5A4
:100380001D6904462D060846114604D5194A5A60CF
:1003900002F188325A6019B34FF0000C144B451C1F
:1003A0000CF1010E714510F80C208ABF15F80CE015
:1003B00042F47F4E42EA0E2EDA68D207FCD41A6964
:1003C00042F001021A6124F80CE0DA68D207FCD48A
:1003D0001A690CF1020C22F0010261451A61DFD8A2
:1003E000034A0120136943F08003136130BD00BF4D
:1003F000002002402301674508B50A4B1A6912061E
:1004000003D50949094A59605A600948FFF772FF44
:1004100010B10848FFF76EFF024A136943F08003EA
:10042000136108BD0020024023016745AB89EFCD71
:1004300000F8010800FC010884464F4B2DE9F04705
:1004400007CBCCF800004D4BCCF80820DCF800209E
:10045000DFF82CE19A429EF80040CCF804104FD00F
:10046000DFF820810CF1FF370CF107050123002292
:100470008CF80430CCF805208CF8073041238CF838
:10048000013054238CF802304F2331218CF8033093
:100490009EF800308CF80010CCF80820002B67D1B3
:1004A000394ADFF8E89002F580641946082041F3E4
:1004B000000606EA0906013886EA5101F7D142F83A
:1004C000041FA24203F10103EFD101214FF0FF33DA
:1004D0006FF07F4000E0180A17F8012F5340DBB29D
:1004E00058F82330BD4283EA0003F4D111B1012250
:1004F0008EF80020DB43CCF808306046BDE8F0877A
:100500000CF1FF373E46DCF808900CF107058CBB78
:10051000DFF874801D4808F5806A2246082142F3FE
:1005200000030340013983EA5202F8D148F8042F4E
:10053000C24504F10104F0D101214FF0FF336FF007
:100540007F40DFF8408000E0180A16F8012F534082
:10055000DBB258F82330B54283EA0003F4D111B17D
:1005600001228EF80020DB4399457FF47FAFC4E77A
:100570001146ABE70021E0E700F801083141544F94
:100580000400002008000020040000202083B8EDB3
:100590002DE9F041DFF890C084B09CF8003001AC48
:1005A00084E807000DF10B050DF10300CBBB1F4ADA
:1005B000DFF87C8002F5806619464FF0080E41F3A3
:1005C000000707EA0807BEF1010E87EA5101F6D1DC
:1005D00042F8041FB24203F10103EDD101264FF0AE
:1005E000FF336FF07F41134F00E0190A10F8012F1D
:1005F0005340DBB257F82330854283EA0103F4D13C
:1006000016B101228CF80020DB430393FFF7F4FEC0
:1006100020B10C2221460848FFF7B0FE04B0BDE827
:10062000F0810026DBE700BF04000020040000206A
:100630002083B8ED0800002000F8010830B585B02F
:1006400001AC05462046FFF7F7FE00238DF8095060
:10065000ADF80A3094E8070005B0BDE83040FFF778
:1006600097BF00BF70B584B001AC84E80E009DF860
:10067000093005469DF80A604BB923468DF80A609B
:1006800007CB286028466960AA6004B070BD0136B7
:10069000F6B28DF80A6094E80700FFF779FFECE7FF
:1006A00043793BB1C3792BB98079022894BF0020EC
:1006B00001207047002070474FF0000C2DE9F04FEB
:1006C000C9B0DDF8488104460D461746062142466A
:1006D00003A81E46CDF80CC0ADF810C0FFF7C8FD4A
:1006E00018B19DF80C30A52B05D04FF000084046FE
:1006F00049B0BDE8F08FBDF81030B3F5807FF4D875
:1007000003A9062205A800F0A3F9BDF8101031B125
:1007100042460DF11A00FFF7ABFD0028E5D0424636
:10072000042102A8FFF7A4FD80460028DDD0DFF8F1
:10073000C4B0BDF810A09BF800000DF11A0205AB83
:1007400002EB0A0C00284BD12B4ACDE900A39246BC
:100750002A4902F5806902464FF0080E42F3000371
:100760000B40BEF1010E83EA5202F7D14AF8042F82
:10077000CA4500F10100EED14046DDE900A34FF08B
:10078000FF326FF07F419146DFF874E001E04FEAFD
:10079000192113F8012B82EA0902D2B25EF8222055
:1007A0009C4582EA0109F2D14A4610B101238BF837
:1007B0000030D243029B934297D19DF80D303B709D
:1007C000BDF80E303380A5F800A0BAF1000F09D1B2
:1007D00000F060F99620FFF7E7FC00F061F986E78A
:1007E0000020CCE7524620460DF11A0100F030F906
:1007F000EEE700BF04000020040000202083B8EDD5
:1008000008000020F0B5A52503460E46002487B059
:100810008DF80450244DC3F10503062203A801A955
:100820008DF80530ADF80660ADF8084000F010F91D
:100830002B780DF10C0C0DF11200ABB91B4A1C4FBB
:1008400002F5806419464FF0080E41F300063E4061
:10085000BEF1010E86EA5101F7D142F8041FA2420F
:1008600003F10103EED101244FF0FF336FF07F411C
:10087000104E00E0190A1CF8012B5340DBB256F869
:100880002330604583EA0103F4D10CB101222A70C0
:10089000DB4304226946009300F0DAF80A2103A83A
:1008A000FFF7D4FC07B0F0BD0400002004000020D6
:1008B0002083B8ED080000202DE9F047C6B00546BA
:1008C0008846FFF76BFC002364270446ADF8103020
:1008D000ADF81230FFF762FC001BA84280F0848064
:1008E00000F0E6F80DF112030DF10F0204A906A8BD
:1008F0000097FFF7E1FE0028ECD09DF80F60012E75
:10090000E8D1042206A905A800F0A2F8059BB8F1D9
:10091000010F03F1FF3308BF0226B3F54C4FBDF8BA
:10092000124068D23046FFF7FFFC2146002874D001
:100930000120FFF767FF059B73B300243D4F3E4B3B
:100940004FF4FA68012E18BF1F4625460DF1120319
:10095000CDF800800DF10F0204A906A8FFF7ACFE48
:10096000002845D09DF80F30BDF81290022B07EB00
:1009700005004DD1BDF810A006A95246FFF7FEFCB8
:1009800000283ED149460134E4B2FFF73BFF052C75
:1009900035D8059B9D42D9D34FF4FA630DF10F0270
:1009A000009304A90DF1120306A8FFF785FEB8B362
:1009B0009DF80F30032B33D1BDF81030402B2FD1D1
:1009C0001C4B1D49059A012E08BF194606A800F0C8
:1009D00035F8BDF8121048B30120FFF713FF304679
:1009E000FFF72CFE012000E0002046B0BDE8F087B4
:1009F000BDF81210C7E721460020FFF703FF0320D0
:100A0000F3E749460120FFF7FDFE00245544C0E707
:100A100049460020FFF7F6FEBBE7FFF7F3FEEEE7DF
:100A20000020BDF81210FFF7EDFEE8E7FFF7EAFE41
:100A30000220DAE700600008002C010808B5034B2B
:100A400000F03EF8003818BF012008BD504C0008E7
:100A500052B1013A4B1E00F1FF3C114413F8012F33
:100A60008B420CF8012FF9D1704700BF0749084BA2
:100A70008A6942F004028A611A6822F470021A60DC
:100A80001A6842F480121A60704700BF00100240DA
:100A9000000801402022014B1A6170470008014004
:100AA0004FF40012014B1A61704700BF000801406B
:100AB000024AD36883F02003D360704700080140E6
:100AC000F0B51D4690F83F30ADF5137D1F2B03D9CF
:100AD00000200DF5137DF0BD04460E4636A82946CC
:100AE000174600F0CFFF0028F2D15EA800F070FE9C
:100AF000214620225EA800F0C3FE294620225EA8DF
:100B000000F0BEFE3A4631465EA800F0B9FE08A9E4
:100B10005EA800F00FFF08A802F0DAFF36AA04F181
:100B2000200308A918A801F05FF9684618A901F088
:100B3000D1FB22789DF800309DF801105340627877
:100B400051400B439DF80220A1784A4013439DF881
:100B50000310E27851400B439DF8042021794A406C
:100B600013439DF80510627951400B439DF8062010
:100B7000A1794A4013439DF80710E27951400B4395
:100B80009DF80820217A4A4013439DF80910627AA3
:100B900051400B439DF80A20A17A4A4013439DF827
:100BA0000B10E27A51400B439DF80C20217B4A4008
:100BB00013439DF80D10627B51400B439DF80E20AE
:100BC000A17B4A4013439DF80F10E27B51400B4339
:100BD0009DF81020217C9DF81D004A4013439DF88C
:100BE0001110627CA57F51400B439DF81220A17C1F
:100BF0004A4013439DF81310E27C51400B439DF88B
:100C00001420217D4A4013439DF81510627D514008
:100C10000B439DF81620A17D4A4013439DF8171001
:100C2000E27D51400B439DF81820217E4A4013433A
:100C30009DF81910627E51400B439DF81A20A17E49
:100C40004A4013439DF81B10E27E51400B439DF830
:100C50001C20217F4A401343627F9DF81E105040A4
:100C600003439DF81F20E07F694042400B4313433C
:100C70000CBF012000200DF5137DF0BD2DE9F04FD4
:100C8000ADF53F7D0DF1300C644602460B460B90EE
:100C900000F14009F2E902014A45E4E90201F9D113
:100CA0001EAA01921CAC3CADDA7993F804E05879A5
:100CB00059781F7842EA0E629E7842EA004209049F
:100CC000987941EA076141EA062142EA0022DE788A
:100CD00044F8082F3143AC42616003F10803E3D1CB
:100CE0001EADCDE902C9DDE93A37DDE91E6405F53F
:100CF00000703D990090B646D5E9129BA2464FEA96
:100D0000D34CD80040EA57704CEA473C8CEA000CC0
:100D10004FEAD748F80055F8086F48EA433840EAE8
:100D200053709B0943EA87636C6888EA00008CEA89
:100D3000030313EB090C80EA971013460F464FEAA2
:100D400056024FEA162141EA046142EAC47282EA7D
:100D500001024FEA14284FEA540148EA066841EAC2
:100D6000C67181EA08014FEAD61848EA446882EA67
:100D700008024BEB000081EAD4111CEB020C40EBA3
:100D800001001EEB0C024AEB00010098C5E91E2190
:100D90008542B0D11C9BDDE902C90A931D9BDDE9A8
:100DA00018AE0293169BCDF834900493179BCDF8A0
:100DB00018E005931A9BD646DDE911B8DDE91476F3
:100DC00003931B9B064809930E9B13990793DDE938
:100DD0000F32994692460891CDF830C0009001E05C
:100DE000704C00080499059D0098019A8C0B8B0C9F
:100DF00043EA853344EA854412685C4003684FEA5D
:100E0000953C9B184FEA954242EA81324CEA814C6C
:100E100003988CEA020C4FEAC15242EA552284EA56
:100E2000020480EA0E0202EA010282EA0001019A4B
:100E300000985268406840EB02020498E4184FEAB8
:100E4000C55343EA50238CEA030C099D4CEB020C7A
:100E5000069A059B6A400A981A40641882EA0502BD
:100E60004CEB020224180298DDF800C040EB0202AD
:100E70003F190297079F46EB02003B0FB90741EA73
:100E8000990143EA09134B404FEA89764FEA1971F9
:100E900046EA970641EA071171407E0646EAD916EE
:100EA00073401B194FEA496444EAD71484EA0104E9
:100EB000089947EA0A0642EB040449EA0B0206EAEB
:100EC00008060A4007EA0A010E439B1909EA0B01CA
:100ED000019E42EA010244EB0204B168DCF80820FA
:100EE000F6685218049981EA0E07029907EA010789
:100EF000DCF80C1087EA0E0741EB0601039E9219FD
:100F000045EB0101D219029FDDE9055C4FEA9736F6
:100F10004FEA974747EA803746EA804686EA07065F
:100F200085EA0C07654607EA000787EA05070546D4
:100F300041EB0701870B02984FEA954C4CEA803C45
:100F400047EA804787EA0C074FEAC05C4CEA552C19
:100F500086EA0C0696194FEAC55242EA502287EA01
:100F60000207089A41EB070118EB060809954FEABA
:100F70008377054642EB01001A0F47EA940742EADD
:100F800004127A404FEA847C270F4CEA930C47EA1C
:100F9000031787EA0C074FEA436C08904CEAD41C0D
:100FA000079882EA0C02921906464FEA446C4CEA12
:100FB000D31C46EA030687EA0C0706EA0A0600EA9B
:100FC000030C46EA0C06019841EB070112EB060CF4
:100FD00049EA0407009A09EA040607EA0B0747EA08
:100FE00006071269066941EB07019219009E0391F9
:100FF00077694669049947EB0606069F12EB0E02D5
:1010000047EB060681EA050745462F40DDF82080BC
:101010004F40D219294609984FEA95374FEA954E25
:10102000059D4EEA883E47EA884787EA0E0785EA2B
:10103000000E0EEA080E8EEA050E454646EB0E0639
:101040004FEA983E4FEA984848EA81384EEA814E86
:101050008EEA080E4FEAC15848EA552887EA080781
:10106000D7194FEAC55242EA51228EEA020246EBF4
:1010700002021AEB0706DDF80CA04BEB020E5046FD
:101080000A96CDF818E04FEA1C764FEA8C7E4EEABD
:101090009A0E46EA0A1686EA0E064FEA8A784FEA60
:1010A0001A7E48EA9C084EEA0C1E8EEA080E4FEAA9
:1010B0004C6848EADA1886EA0806F6194FEA4067EB
:1010C00047EADC1707988EEA070E43EA0C07DDF8BB
:1010D00004B042EB0E02074003EA0C0E009844EA0B
:1010E0000A0847EA0E0716EB070E04EA0A0ADBF8BD
:1010F0001870866908EA090848EA0A0842EB0802FB
:10110000F619C769DBF81C00DDF808A047EB0007FB
:101110000498DDF828B036188AEA0108059808EA2C
:101120000B0840EB070788EA0A08069816EB080642
:101130004FEA9B4A4FEA9B384AEA803A48EA80489D
:1011400088EA0A08DDF824A08AEA050A099D0AEA65
:10115000000A8AEA050A47EB0A0705464FEA903A71
:1011600058464AEA8B4A4FEA954B05464BEA803B84
:101170008AEA0B0A4FEAC05B06984BEA502B88EAD2
:101180000B0816EB08084FEAC05646EA55268AEACD
:10119000060A079E47EB0A0A16EB080649EB0A0700
:1011A000049707964FEA8E774FEA1E7647EA920732
:1011B00046EA02167E404FEA8279170F49EA9E09F5
:1011C00047EA0E1787EA09074FEA4E6949EAD2193A
:1011D00086EA090616EB08064FEA426848EADE1876
:1011E000DDF80CB087EA08074AEB070A4CEA0E075D
:1011F0000CEA0E094BEA02081F400BEA020B08EA50
:10120000040847EA090716EB0709019D009E48EA12
:101210000B084AEB08082F6ACDF81480366ADDF80F
:101220000080F6196F6AD8F82450DDF828B045EB35
:101230000707029DDDF81CA0761981EA0B08099DBD
:1012400008EA0A0845EB070788EA0108049DD34627
:1012500016EB08064FEA9A384FEA9A4A4AEA853A64
:1012600048EA854888EA0A08DDF820A08AEA000AE8
:1012700028460AEA050A089D8AEA050A47EB0A0792
:1012800005464FEA903A58464AEA8B4A4FEA954B50
:1012900005464BEA803B8AEA0B0A4FEAC05B04989A
:1012A0004BEA502B88EA0B0816EB08084FEAC056A9
:1012B00046EA55268AEA060647EB060613EB0803BC
:1012C0009B46059D44EB060302934FEA19774FEACC
:1012D000897343EA950347EA05175F40AC072B0F74
:1012E00044EA990443EA091363404FEA496444EA33
:1012F000D51467406C0644EAD91417EB080783EA53
:101300000403039C46EB030642EA05084EEA090380
:1013100003EA0C0308EA04080EEA09042343FF1851
:10132000019C009B02EA050A9B6AA46A019D48EAA7
:101330000A0846EB08061B19EC6ADDF800804FEA44
:101340009B4AD8F82C50DDF81C8045EB0404089D1E
:101350005B1845EB04040A9D029985EA080808EA2F
:101360000B0888EA050813EB08034FEA9B384AEAA2
:10137000813A48EA8148069988EA0A0881EA000A1F
:10138000029806990AEA000A8AEA010A014644EB31
:101390000A044FEA903A58464AEA8B4A4FEA914B80
:1013A0004BEA803B8AEA0B0A4FEAC05B4BEA512BBF
:1013B00088EA0B0813EB08034FEAC15848EA5028A3
:1013C0008AEA080A44EB0A0A1CEB030483464FEA44
:1013D000177820464FEA8771039C41EA960148EA54
:1013E000061844EB0A0C88EA0108B407310F44EAF6
:1013F000970441EA0711CDF824C06140DDF814C01C
:101400007C0644EAD61488EA0408644618EB03080C
:101410004FEA466343EAD71381EA030149EA070327
:101420004AEB010A03EA0E0309EA07010B4318EB32
:1014300003080199009B44EA0604096B1B6B04EA4C
:1014400002040CEA060C44EA0C044AEB040A5B189A
:10145000009C0199646B496BDDF81CC044EB0101F1
:10146000069C5B1944EB01018CEA0B040546044021
:101470006046CDF820A04440DDF824A01B194FEAB7
:10148000954C4FEA95344CEA8A3C44EA8A44CDF8BC
:1014900028B084EA0C04DDF810B0DDF808C003952C
:1014A0008BEA0C0C0CEA0A0C8CEA0B0CD34641EBD1
:1014B0000C014FEA9A3C4FEA9A4A4AEA853A4CEACA
:1014C000854C8CEA0A0C4FEAC55A4AEA5B2A84EA40
:1014D0000A04DDF80CA04FEACB5B4BEA5A2B1C192F
:1014E0008CEA0B0B41EB0B0B1EEB040E42EB0B02D9
:1014F0009446089D06924FEA18734FEA887242EAB2
:10150000950243EA05135340A9072A0F41EA9801BF
:1015100042EA08124A404FEA486141EAD5114B407D
:10152000690641EAD8111B1982EA0102059C4BEBBE
:10153000020B46EA050147EA080202EA09022140D5
:1015400007EA0804224313EB020A019C009A936BFA
:10155000A26B06EA0504654641EA04014BEB010B68
:101560009B18009A0199D46B02F140020092CA6B59
:1015700001F1400144EB02040191039A0A991B18FE
:1015800081EA0202049802EA0E0282EA010240EBBA
:1015900004044FEA9E419B184FEA9E3241EA8C3187
:1015A00042EA8C42029882EA0102099980EA01012A
:1015B00001EA050181EA000144EB01046046A90B40
:1015C0004FEA9C4C4CEA8E3C41EA8E4181EA0C0188
:1015D0004FEACE5C4CEA552C82EA0C029A184FEA8C
:1015E000C55343EA5E2381EA030144EB0101059CF4
:1015F00019EB0203049344EB010305934FEA8A7449
:101600004FEA1A7344EA9B0443EA0B1363404FEA20
:101610008B7C4FEA1B744CEA9A0C44EA0A1484EA65
:101620000C044FEA4A6C4CEADB1C83EA0C039B185F
:101630004FEA4B6242EADA1284EA020448EA0A02FA
:10164000089D02EA070208EA0A0C42EA0C0241EB92
:1016500004049B1845EA0B0101EA0601079305EA19
:101660000B0341EA0301009A1C4B44EB01099A4227
:101670007FF4B8AB5246F246494686460A9BCDE90E
:1016800014761C93029BCDE918A01D93039BCDE912
:10169000102B1A93099BDDF830C01B93049BDDF8D7
:1016A00034901693059BCDF848801793079B1395AC
:1016B000CDE90E310B9B53F8082F5CF8080F5968E1
:1016C000DCF80440121841EB04014B45C3E900214A
:1016D000F1D100200DF53F7DBDE8F08FF04E000800
:1016E000826C7F2A71D82DE9F84306460D46082101
:1016F000036880207768E2FB0137C6E90037984627
:10170000531CB118702BB36481F84C0015D9802B91
:101710000BD0002102F14C03334406F1CB0203F855
:10172000011F9342FBD18023B36406F14C09494663
:101730003046FFF7A3FA002301E006F14C093446D6
:1017400000204B33334406F1C30203F8010F9342E8
:10175000FBD1782298FA88F3C6F8C8300023B26427
:101760003A0E62F307033A0C62F30F233A0A62F36C
:10177000174367F31F6349463046C6F8C430FFF786
:101780007DFA29464036E37B08340B70E388B44287
:101790004B70636801F108014FEA132301F8063C1E
:1017A000636801F8053CE37801F8043C638801F8BC
:1017B000033C23684FEA132301F8023C236801F835
:1017C000013CE0D10020BDE8F8830120704700BF54
:1017D000002831D0F0B41AA7D7E9006703460024E7
:1017E00000200025C3E9026717A7D7E90067C3E90E
:1017F000004517A5D5E90045C3E9046716A7D7E951
:101800000067C3E90E4516A5D5E90045C3E906679B
:1018100015A7D7E90067C3E91045C3E9086714A70E
:10182000D7E900679864C3E90A6713A7D7E9006797
:10183000C3E90C67F0BC704701207047AFF300802C
:1018400008C9BCF367E6096A3BA7CA8485AE67BBD3
:101850006BBD41FBABD9831F2BF894FE72F36E3C3A
:1018600079217E1319CDE05BF1361D5F3AF54FA566
:10187000D182E6AD7F520E511F6C3E2B8C68059BCA
:10188000002854D0F8B50F4649B31646826C04467A
:10189000802A24D8002E48D000F14C05AAB97F2E0A
:1018A0001FD939462046FFF7E9F9C8B9D4E9003213
:1018B00013F5806342F10002C4E900328037803EB4
:1018C000002E32D0A26C002AE9D0C2F18001B142D0
:1018D00028BF314631B9802AA264F3D114E0012037
:1018E000F8BD31467B1E02F14B0CA444581813F886
:1018F00001EF83420CF801EFF9D10A44802AA26477
:101900000F44A6EB0106DBD129462046FFF7B6F9C6
:101910000028E5D12368A06413F580632360636821
:1019200043F100036360002ECCD10020F8BD0120FC
:10193000704700BF10B109B1FFF7D2BE0120704758
:1019400000F1FF3C2DE9F04300226446D310CB5C4C
:1019500002F0070E43FA0EF3013203F00103B2F571
:10196000807F04F8013FF1D14FF0000E40F20117E3
:101970004FF00108754600F580761CF9013F0EF125
:10198000010E23B9BEF5807FF7D1BDE8F083BEF527
:10199000807FFAD061460122A7EB0E0907E08CF8A0
:1019A00000400D700132072AE7D04A45E5D011F911
:1019B000013F002BF6D09CF900009340C4180F2C77
:1019C000EDDDC01A10F10F0FD7DB0B468CF80000CD
:1019D00003E09E4203F8015CE4D0184690F9004011
:1019E0000133002CF5D180F80080DBE72DE9F043CE
:1019F00004460D46164601F128088BB004F128076D
:101A00000A46414600F082FC41462A4604F150084D
:101A1000384601F08BFE32462146404600F0C8FDB4
:101A200004F178093946384606F1280200F0C0FD75
:101A3000484605F1780206F1780100F0B9FD20462C
:101A400006F1500205F1500100F0B2FD2246214698
:101A5000684600F05BFC3A464146204601F066FECF
:101A60003A464146384600F051FC4A4669464046EF
:101A700000F04CFC4A466946484601F057FE0BB060
:101A8000BDE8F083F0B5044600F12806B3B004F1D8
:101A9000500530460F4600F083FC284600F028FC35
:101AA0003146684601F0C2F86946354A0AA800F096
:101AB0007FFD2A466946684601F038FE0AA92A4693
:101AC000084600F023FC0AA914A801F0AFF814A9F5
:101AD00008460AAA00F06CFD204614A901F0A6F8F9
:101AE000214620460AAA00F063FD6A4621462046A8
:101AF00000F05EFD2146204601F04EFB21462046C7
:101B000014AA00F055FD6A462146204600F050FD1B
:101B100021461EA801F08AF81EA908460AAA00F06C
:101B200047FD28A86A461EA901F000FE28A801F07A
:101B300063FF68B128A86A461EA900F0E7FB28A841
:101B400001F05AFFC8B9214620460E4A00F030FD88
:101B5000204601F043FFFB7FB0EBD31F08D004F118
:101B600078003246214600F023FD002033B0F0BD5E
:101B70002146204601F034F8F1E74FF0FF30F5E759
:101B8000404F0008184F00082DE9F04105460C466B
:101B9000174601F128088AB005F128060A46414691
:101BA00000F0B4FB4146224605F15008304601F0F2
:101BB000BDFD3A462946404600F0FAFC3146304623
:101BC00007F1280200F0F4FC07F1500105F1780755
:101BD000384604F1780200F0EBFC04F150021146A3
:101BE000684600F093FB32464146284601F09EFDD0
:101BF00032464146304600F089FB3A466946404647
:101C000000F084FB3A466946384601F08FFD0AB081
:101C1000BDE8F0812DE9F04105460C46174601F17B
:101C200028088AB005F128060A46414600F06EFBF6
:101C30004146224605F15008304601F077FD29461D
:101C4000404607F1280200F0B3FC3A4631463046E0
:101C500000F0AEFC07F1500105F17807384604F1B9
:101C6000780200F0A5FC04F150021146684600F02D
:101C70004DFB32464146284601F058FD324641466A
:101C8000304600F043FB3A466946404601F04EFDBF
:101C90003A466946384600F039FB0AB0BDE8F081A3
:101CA0002DE9F04104460E468AB004F1500506F1D4
:101CB000280800F0BBFF04F178074146284600F0F1
:101CC000B5FF384606F1500101F008FB314604F13A
:101CD00028064246304600F019FB3146684600F0BF
:101CE000A5FF22462946304600F010FB2246294631
:101CF000284601F01BFD32466946204601F016FDDC
:101D00002A463946384601F011FD0AB0BDE8F08197
:101D100030B50D4604469FB06846503101F098F941
:101D20006A4629460AA800F043FC6A4605F12801E4
:101D300014A800F03DFC204614A901F02DFD0AA8CE
:101D400001F04CFEE37F83EAC013E3771FB030BDA0
:101D50002DE9F04304460D46164601F128088BB0E4
:101D600004F128070A46414600F0D0FA41462A46C7
:101D700004F15008384601F0D9FC2146404606F1EE
:101D8000280200F015FC04F178093246394638463D
:101D900000F00EFC484605F1780206F1780100F0EB
:101DA00007FC204606F1500205F1500100F000FC4E
:101DB00022462146684600F0A9FA3A4641462046A6
:101DC00001F0B4FC3A464146384600F09FFA4A46D4
:101DD0006946404601F0AAFC4A466946484600F07A
:101DE00095FA0BB0BDE8F0832DE9F04F1D4614467F
:101DF000ADF6E40D0DF5F0780746B8AE4046FFF7B6
:101E00009FFD2946304604F12805FFF799FD22463B
:101E10002946F8A800F07AFA04F15009224629462A
:101E20000DF5816001F082FC49460DF5866000F0F9
:101E30009FFAB94A04F178010DF58B6000F0B8FB08
:101E4000214650A800F094FA29465AA800F090FACA
:101E5000494664A800F08CFA684650A9FFF720FFB5
:101E600069461EAA50A800F0A3FB5AA814AA0AA902
:101E700000F09EFB1EAA14A964A800F099FB694615
:101E80000AAA6EA800F094FB6846F8AA50A9FFF7CA
:101E9000ADFD69461EAA28A800F08AFB14AA0AA96B
:101EA00032A800F085FB1EAA14A93CA800F080FB14
:101EB00069460AAA46A800F07BFB28AA32A90DF5BC
:101EC000906000F023FA28AA32A90DF5956001F080
:101ED0002DFC3CA90DF59A6000F04AFA8E4A46A9FD
:101EE0000DF59F6000F064FB68460DF5906250A907
:101EF000FFF77CFD69461EAA28A800F059FB14AA2A
:101F00000AA932A800F054FB1EAA14A93CA800F0AC
:101F10004FFB69460AAA46A800F04AFB28AA32A944
:101F20000DF5A46000F0F2F928AA32A90DF5A96018
:101F300001F0FCFB3CA90DF5AE6000F019FA764A01
:101F400046A90DF5B36000F033FB68460DF5A462B9
:101F500050A9FFF74BFD69461EAA28A800F028FBF0
:101F600014AA0AA932A800F023FB1EAA14A93CA8AF
:101F700000F01EFB69460AAA46A800F019FB28AA31
:101F800032A90DF5B86000F0C1F928AA32A90DF503
:101F9000BD6001F0CBFB3CA90DF5C26000F0E8F993
:101FA0005D4A46A90DF5C76000F002FB68460DF5D5
:101FB000B86250A9FFF71AFD69461EAA28A800F0CA
:101FC000F7FA14AA0AA932A800F0F2FA1EAA14A974
:101FD0003CA800F0EDFA69460AAA46A800F0E8FA23
:101FE00028AA32A90DF5CC6000F090F928AA32A9F0
:101FF0000DF5D16001F09AFB3CA90DF5D66000F01B
:10200000B7F9454A46A90DF5DB6000F0D1FA6846FC
:102010000DF5CC6250A9FFF7E9FC69461EAA28A875
:1020200000F0C6FA14AA0AA932A800F0C1FA1EAA42
:1020300014A93CA800F0BCFA69460AAA46A800F018
:10204000B7FA28AA32A90DF5E06000F05FF928AAD6
:1020500032A90DF5E56001F069FB3CA90DF5EA60D8
:1020600000F086F92C4A46A90DF5EF6000F0A0FAC1
:1020700068460DF5E06250A9FFF7B8FC69461EAA54
:1020800028A800F095FA14AA0AA932A800F090FA3C
:102090001EAA14A93CA800F08BFA69460AAA46A811
:1020A00000F086FA28AA32A90DF5F46000F02EF9A6
:1020B00028AA32A90DF5F96001F038FB3CA90DF50D
:1020C000FE6000F055F9144A46A90DF6180000F01C
:1020D0006FFA68460DF5F46250A9FFF787FC694670
:1020E0001EAA28A800F064FA14AA0AA932A800F0CF
:1020F0005FFA1EAA14A93CA800F05AFA69460AAA77
:1021000046A800F055FA28AA32A90DF5046000F09F
:10211000FDF828AA02E000BFF04E000832A90DF633
:10212000680001F003FB3CA90DF5096000F020F9FF
:10213000664A46A90DF6B80000F03AFA07F12809F8
:10214000384600F0C9F807F1500A484600F0D0F8C8
:10215000504600F0CDF8F8AC324606E014F9011C08
:1021600041B99E4200F0AE801C4612F9011D631E6B
:102170000029F3D0A41B2644DFF854B1444417E0EF
:102180005ED116F9015D002D3CDC7BD169463846F5
:102190001EAA00F00DFA484614AA0AA900F008FA8F
:1021A00050461EAA14A900F003FAA04500F08A8048
:1021B00039466846FFF774FD14F9015D002DDFDD37
:1021C00069461EAA28A800F0F3F914AA0AA932A8A1
:1021D00000F0EEF91EAA14A93CA800F0E9F96D1070
:1021E00069460AAA46A800F0E3F905EB8505F8ABB5
:1021F00003EB4512684628A9FFF7F8FB16F9015DC5
:10220000002DC2DD69461EAA28A800F0D1F914AA43
:102210000AA932A800F0CCF96D101EAA14A93CA896
:1022200000F0C6F9C5EB051569460AAA46A800F0F4
:10223000BFF968460BEBC50228A9FFF7A5FCA5E787
:1022400069461EAA28A800F0B3F914AA0AA932A860
:1022500000F0AEF91EAA14A93CA800F0A9F905EBFC
:10226000D57569460AAA46A800F0A2F96A1052423A
:10227000F8AB02EB8202684603EB421228A9FFF793
:1022800067FD7EE769461EAA28A800F091F914AA06
:102290000AA932A800F08CF91EAA14A93CA800F0E3
:1022A00087F905EBD57569460AAA46A800F080F9BA
:1022B0006A10A2EB021268460BEBC20228A9FFF7D4
:1022C000A9FC63E70DF6E40DBDE8F08FF04E0008C1
:1022D000684F0008FFF71CBD0023C0E90033C0E9C8
:1022E0000233C0E90433C0E90633C0E9083370475C
:1022F00000230122C0E90233C0E90023C0E904330E
:10230000C0E90633C0E90833704700BF2DE9F04744
:1023100053684E688D681E449368CC681D44D3682A
:102320000F691C441369D1F814C01F445369D1F8D4
:1023300018E09C449369D1F81C809E44D369D1F87D
:1023400020909844136AD1F800A099444B6A516ACE
:1023500019441368C0E902545344C0E9047CC0E93D
:1023600006E8C0E9089146600360BDE8F08700BF59
:102370002DE9F043D1E90098D1E902E3D1E90476EF
:10238000D1E90654D1E90821C0E90098C0E902E387
:10239000C0E90476C0E90654C0E90821BDE8F0832D
:1023A0002DE9F04F002691F806E04A790B794FEAC3
:1023B0000E4E4EEA022E4EEA030E8B7FCD7F1B029D
:1023C00091F80CC043EA05434D7FCF7A2B434FEA87
:1023D0000C4C4D7A4CEA072C0F7ACC792D0445EA47
:1023E000072525438BB06C0100948C7A8F7B4CEAD7
:1023F000040CCC7B9B00240444EA07244F7B23F08D
:102400007E4323F003033C4303F18079A4000A6870
:10241000019449F3406404F01304A2188C7D91F8F0
:1024200015B002924A7E0F7E4FEA044446EB060541
:102430004FEA8E1E44EA0B24120491F817B00EF1F5
:102440008078039509F07E490D7D42EA0722B3EBBF
:1024500009034FEA586A42EA0B0208F07E4891F8F5
:102460001CB0CDF818800493D1F81080009B2C4349
:10247000CD7E4FEA0B4B897E4FEACC0C4BEA05250B
:10248000DDF818900CF180770D4301991AEB030ADF
:102490004FEA576334BFB3464FF0010BBEEB090E52
:1024A0005B1834BF3146012107F07E47BCEB0707BC
:1024B000019118F18071009346F1000652014B0E14
:1024C000E40143EAC61302F180761B194FEA0515B1
:1024D00001F07E444FEA56612CBF4FF001094FF0E6
:1024E0000009B8EB040449192CBF4FF0010C4FF060
:1024F000000C06F07E46921B0992029A039D12F18F
:102500000078CDF814B045F1000B009DCDF818E02F
:102510000797CDF820C013F1007705F1007C4FEA52
:10252000986508F07C4849F10009B2EB0808069A62
:1025300045EA8B15AD180AF1007EDDF814B0C0E94C
:102540000085079A4FEA9E6545EA8B150EF07C4E92
:10255000BAEB0E0EDDF80480AD18C0E902E5DDF837
:1025600000E04FEA9C6545EA88150CF07C4CBEEB18
:102570000C0C099A2D19BC0E44EA891407F07C470B
:10258000DB1B01F10076A418C0E904C5DDF820C00A
:10259000C0E90634049AB30E43EA8C1306F07C4675
:1025A000891B9B18C0E908130BB0BDE8F08F00BF72
:1025B0002DE9F04FD1E90083546AA7B0264604EB19
:1025C000C40406EB440C1F96166AD2F81CA006EB56
:1025D000C60506EB450507950AEBCA05CDF868A0C8
:1025E0000AEB450ACDF818A0D2F818A05468D768AD
:1025F000D2F810E0D2F80090956820901E96C86836
:1026000056690AEBCA0202940AEB42028C681893DC
:1026100004950A92450006EBC6025B00D1F810B0A3
:102620000F9305944B6906EB42040C901095CDF87E
:1026300054A014968A69129401920EEBCE02CC69D2
:102640000EEB4200CDF824E0D1F820E0496A07EB18
:10265000C7020D935E00034607EB42000A4635466B
:102660000F9E08971392670052000499119717461E
:1026700086FB0C260E94029C01EBC10A01EB4A0A70
:1026800004EBC401C8FB092604EB41014C46CDF81C
:102690000CE0DDF81490DDF81CE0CDF82C80C9FBCF
:1026A0000E26DDF84080DDF818901C90C8FB092646
:1026B000DDF82880DDF84890CBFB0826C5FB09260D
:1026C000DDF804802846C8FB0326119DDDF87090D4
:1026D0001D93C5FB0926039D1697C5FB0A26189D69
:1026E000C7FB012684FB055119940B9C029B12F138
:1026F0000078C4FB0351059C0C9BCCFB0451CEFB22
:102700000351DDF818E00D9BCEFB0B51DDF828E0FE
:1027100046F10009CEFB0351DDF848E0019B4FEA8A
:102720009867CEFB0351DDF874E00E9B47EA8917EA
:10273000CEFB03511C9BDDF80CE008F07C48C3FB8A
:102740000E51139BDDF820E0CAFB03517F1941EBCA
:10275000A961B2EB0802229266EB090223920F9A5A
:10276000DDF82C808EFB0225DDF824E02191C8FBEA
:102770000E2504992346C1FB04251099029CDDF81F
:102780001C90C4FB01251999DDF80480C1FB0B25C1
:10279000CCFB0025C9FB08251199DDF81890039E94
:1027A000C9FB01250A991B90C1FB06259146129A87
:1027B000DDF858801898C2FB08958EFB002A0B9C08
:1027C000DDF850E04946C4FB0E2ADDF820E0029C0B
:1027D000CEFB032A0C9BDDF810E0CDF85CC0CEFBED
:1027E000032AC4FB0B2A0D9B199CDDF81CE0C4FBDB
:1027F000032A019B1398CCFB032A0E9BDDF818C01B
:10280000CEFB032A039B19F10078CCFB032A0A9B19
:1028100045F10009C3FB002A4FEA986646EA89168B
:10282000B618DDF808C00F9A08F07C484AEBA96A90
:10283000B1EB0808CDF890808CFB02280B9C049823
:10284000DDF814C0C4FB0028199C1098C4FB0C28A8
:10285000DDF85CC065EB0905CCFB0028CEFB0B283E
:10286000DDF818C01B98DDF88490CCFB00289C464E
:102870002595019BDDF80CE0CCFB0328DDE9110C6C
:10288000CCFB00281D9B1698C3FB0E281C9B17F140
:102890008075C3FB002849F100014FEA556949EAF8
:1028A000C11919EB020905F07E4548EB61687D1BF3
:1028B0000F9A1C95149DDDF854C085FB0225CDF8B8
:1028C0006490DDF82C90DDF824E0C9FB0C25DDF8E0
:1028D00014C01098CEFB0C25DDF820E0DDF808C010
:1028E000CEFB0025DDF810E01B98CEFB0B25CCFBC2
:1028F0000025019BDDF85CC0C4FB03251198DDF8C1
:102900001CE0CCFB0025039B1698CEFB0325DDF8CD
:1029100018E016F18071CEFB00254AF1000A4F0E37
:1029200047EACA17BA1801F07E410B9245EB6A6577
:102930000F9A711A1A9E219186FB02361E9A1599DA
:10294000C9FB0236DDF814A01098C1FB0A361499B1
:10295000DDF824E0C1FB0036CEFB0B36089F1B9848
:10296000DDF810E0C7FB003601991198CEFB013667
:102970000299DDF830E0C1FB003603991698C4FBDC
:1029800001361946CCFB001618980F9182FB0023E4
:102990001F99C9FB012394461A9A5146C2FB0AC3E8
:1029A0001A466346DDF854A0DDF850C0CAFB0E326B
:1029B000CCFB0B32DDF824E0DDF834A0CEFB0A328C
:1029C000DDF804A0DDF810E0C7FB0A32DDF838A01E
:1029D000CEFB0A32DDE9027AC7FB0A329A46139F20
:1029E000DDF868E0C4FB07A2159F87FB0073C9FBF5
:1029F0000E73CCFB0173DDF824E00C99DDF820C0E8
:102A0000CEFB0173CCFB0B73DDF810E00D99CEFB10
:102A100001738EFB0001C9FB0C01DDF808E0DDF855
:102A200014C0DDF83090CEFB0C01F446C4FB090164
:102A3000DDF804E0DDF83890CCFB0E73DDF85CC007
:102A4000DDF81CE0CCFB0B01C4FB0973DDF834900E
:102A5000DDF80CB0CEFB0901019CCCFB0B73DDF85B
:102A600018C0DDF83890CCFB04010A9CDDF848C0A2
:102A7000C4FB0901139CCCFB0B01CEFB0473DDF8F6
:102A800074E0DDF86490CEFB040119F1007C48F19C
:102A900000084FEA9C640CF07C4E44EA8814DDF890
:102AA0002CC0241841EBA8611CF10070CDF804E0A3
:102AB00045F100054FEA906E4EEA851E1EEB070EAB
:102AC00000F07C4043EBA563039014F18070249FD9
:102AD00041F10001450EDDF8948045EAC115ED197C
:102AE00048EB61611EF180790F9F43F100034FEACB
:102AF000596C4CEAC31C1CEB070C00F07E4846EBFB
:102B0000636315F10076CDF8088041F100011CF1F6
:102B1000007843F100034FEA986040EA831010EB1D
:102B20000A0042EBA36310F1807743F100034FEA00
:102B3000576B4BEAC31B5B164FEAC30A4FEACB0243
:102B400012EB0B024AEA5B7A43EB0A0A92184AEB51
:102B50000A0A12EB0B0243EB0A0A229B09F07E4998
:102B6000D218239B08F07C4843EB0A0312F1007B48
:102B700043F100034FEA9B6A4AEA831A1C9B0BF05D
:102B80007C4BB2EB0B021AEB030ADDF804B0199B85
:102B900007F07E47B3EB0B03DDF808B0B4EB0B0492
:102BA000DDF880B0CBE90234B30E43EA81132199FA
:102BB00006F07C46AE1BCBE9002A59180B9A039B02
:102BC000CBE90461D41ABEEB0902BCEB0803C01BBD
:102BD000CBE90642CBE9083027B0BDE8F08F00BF53
:102BE0002DE9F041D1E90137C3F1000C8B69CE68C2
:102BF000C3F10008CB690D69C3F1000E0B6A4C6983
:102C00005A424B6A09687F4276426D4264425B4297
:102C10004942C0E901C7C0E90365C0E90548C0E908
:102C200007E201604362BDE8F08100BF2DE9F04F8B
:102C3000D1E9006426254F6ACA6897B0D1F820A070
:102C400010900C9705FB07F05700059709920AEBC7
:102C5000CA078A680AEB4707D1F81CB0D1F8188078
:102C6000D1F810C00497496957000697770005FB13
:102C70000BF9029701FB05F50F4608EBC80108EBBD
:102C8000410E614649000B46790007915946CDF83F
:102C90002CA049004FEA440A08970E918AFB0017BE
:102CA000C6FB0617CDF828B0DDF810B0CDF800C08F
:102CB0004FEA420CCCFB0B17059ECDF844E0C6FB57
:102CC0000917C3FB0E178C46DDF820E0CDF8048011
:102CD000CEFB05C78AFB066ECDF848C0CDF80CA028
:102CE0000D93029BDDF800A04FEA4808C3FB0A6E73
:102CF000C2FB026E079B1CF1007CC3FB006ECBFB8A
:102D0000086EB046DDF828B047F10001CBFB098E14
:102D1000DDE904B3CDF84C8082FB0068CDF83CE0DF
:102D2000DDF808E04FEA9C65CEFB0468C3FB0B6846
:102D3000CAFB0968DDF844B0DDF81CA045EA81153E
:102D4000CAFB0B68AD19129E0CF07C4C48EBA168D5
:102D5000B6EB0C06F446149667EB01061596039E37
:102D60000D9984FB0646CEFB0246C3FB0046DDF808
:102D700010E0039BCEFB0146CAFB09460199C1FB4B
:102D80000B4682FB03211194099C009BCCFB042180
:102D9000C3FB0021CAFB0E21DDF804E0DDF84CB0D6
:102DA000CEFB092112920F9A1BF1007C42F100091F
:102DB000039ADDF820A083FB0224029B4FEA9C6764
:102DC000C3FB0A24DDF818A0099B47EA8917C3FB57
:102DD0000A24CEFB00240E9BDDF810E00CF07C4CA6
:102DE000C3FB0E240F9BBF1844EBA964BBEB0C0C78
:102DF00063EB090E15F18072DDF844B048F100086C
:102E00004FEA526949EAC81919EB0B0902F07E42F0
:102E100046EB6866AD1A1195039A079DDDE901B38B
:102E200082FB0525C3FB0B25009BDDF824B0C3FB0B
:102E30000A25059BDDF82CA0CBFB0325DDF838B077
:102E4000049BCBFB0025CAFB032517F18078CDF846
:102E50003C9044F100044FEA5869039B49EAC419C5
:102E600019EB0202049283FB0BB2029B08F07E482E
:102E7000C3FB0AB245EB6465B7EB0804DDF81880C4
:102E8000019F059BC7FB08B2DDF81C90DDF800A090
:102E9000C3FB09B2CAFB0AB2D84609940F9C0C9F27
:102EA00014F10074C7FB008246F100068146A70EAC
:102EB000129847EA86173F1841EBA661049E04F07A
:102EC0007C4016F100764FEA966406F07C46059742
:102ED00007900E96019EDDF80CA0DDF808B086FB89
:102EE0000A760A98DDF820A0CBFB0076069845F11B
:102EF0000005CAFB00761846DDF800A044EA8514F8
:102F0000CAFB0376DDF82CA0039BCAFB0976E41903
:102F100046EBA5668AFB03530C9FDDF818A0CBFB9C
:102F200007530A9FDDF82090C7FB0A53019FDDF885
:102F300034B0C7FB0053C9FB0B53AA46059F149836
:102F400017F1807741F100017D0E45EAC11515EBBF
:102F50000C054EEB616114F1807946F100064FEAF1
:102F6000596E4EEAC61E1EEB080E42EB666215F164
:102F7000007607F07E4C41F100011EF10078CDF89B
:102F800000C042F100024FEA986C4CEA821C1CEB34
:102F90000A0C43EBA2631CF1807743F100034FEA74
:102FA000576B4BEAC31B5B164FEAC30A4FEACB02CF
:102FB00012EB0B024AEA5B7A43EB0A0A92184AEBDD
:102FC0000A0A12EB0B0243EB0A031218159809F0D8
:102FD0007E4940EB030312F1007B4FEA9B6A0BF042
:102FE0007C4B43F10003B2EB0B02DDF844B04AEA3C
:102FF000831A1AEB0B0A0F9BDDF81CB00598B3EB94
:103000000B03DDF800B008F07C48B0EB0B0B109818
:1030100007F07E47C0E9002AC0E9023B099AB30ED7
:1030200043EA811306F07C46AE1B0E999B18049A66
:10303000C0E90463551AB4EB0904BEEB0802BCEB0B
:103040000707C0E90654C0E9082717B0BDE8F08FAC
:1030500030B50C46A9B005466846FFF7E7FD69465E
:103060000AA8FFF7E3FD0AA90846FFF7DFFD0AAA51
:1030700021461046FFF79CFA0AAA69466846FFF700
:1030800097FA694614A8FFF7D1FD0AA9084614AAC1
:10309000FFF78EFA0AA914A8FFF7C8FD042414A9A3
:1030A0000846FFF7C3FD013CF9D10AAA104614A94E
:1030B000FFF77EFA0AA914A8FFF7B8FD092414A99E
:1030C0000846FFF7B3FD013CF9D114A908460AAA46
:1030D000FFF76EFA14A91EA8FFF7A8FD13241EA976
:1030E0000846FFF7A3FD013CF9D114AA10461EA91A
:1030F000FFF75EFA14A90846FFF798FD092414A902
:103100000846FFF793FD013CF9D10AAA104614A91D
:10311000FFF74EFA0AA914A8FFF788FD312414A975
:103120000846FFF783FD013CF9D114A908460AAA15
:10313000FFF73EFA14A91EA8FFF778FD63241EA925
:103140000846FFF773FD013CF9D114AA10461EA9E9
:10315000FFF72EFA14A90846FFF768FD312414A9D9
:103160000846FFF763FD013CF9D10AAA104614A9ED
:10317000FFF71EFA0AA90846FFF758FD04240AA91A
:103180000846FFF753FD013CF9D16A4628460AA9D3
:10319000FFF70EFA29B030BD70B50D469EB0064659
:1031A0006846FFF743FD69460AA8FFF73FFD0AA9F5
:1031B0000846FFF73BFD0AAA10462946FFF7F8F933
:1031C0000AAA69466846FFF7F3F969466846FFF7B9
:1031D0002DFD6A4668460AA9FFF7EAF969460AA87A
:1031E000FFF724FD04240AA90846FFF71FFD013C50
:1031F000F9D16A4668460AA9FFF7DAF969460AA8CA
:10320000FFF714FD09240AA90846FFF70FFD013C4A
:10321000F9D10AA908466A46FFF7CAF90AA914A80B
:10322000FFF704FD132414A90846FFF7FFFC013C37
:10323000F9D10AAA104614A9FFF7BAF90AA9084653
:10324000FFF7F4FC09240AA90846FFF7EFFC013C4C
:10325000F9D16A4668460AA9FFF7AAF969460AA899
:10326000FFF7E4FC31240AA90846FFF7DFFC013C24
:10327000F9D10AA908466A46FFF79AF90AA914A8DB
:10328000FFF7D4FC632414A90846FFF7CFFC013CE8
:10329000F9D10AAA104614A9FFF78AF90AA9084623
:1032A000FFF7C4FC31240AA90846FFF7BFFC013C24
:1032B000F9D16A4668460AA9FFF77AF9694668466D
:1032C000FFF7B4FC69466846FFF7B0FC2A4669463A
:1032D0003046FFF76DF91EB070BD00BF26222DE904
:1032E000F04FD1E90779B846CD6897B04C6A0B9595
:1032F0006D0002FB04FC4E6903950F908D69D1E9C6
:10330000000309944FEA430E0C6908938B6809EB9C
:10331000C90109EB4101029159000691414600940F
:103320004C0007942C46770002FB06F10E9702FB37
:1033300008F7009ACDF814905200924605EBC502AA
:10334000B14605EB42063546019466008EFB0C241F
:10335000C0FB0024CDF81080DDF808804FEA400B58
:103360005800C0FB0824DDF80C80CDF83090C8FB75
:103370000724CAFB0524C9FB012492180A9244EBD6
:1033800004021092089ACDF834A082FB0E04CBFB05
:103390000304C8FB0C040299DDF83890C1FB0A0451
:1033A000C246C9FB0704019A0E95C2FB05048EFBB9
:1033B0000821009DDDF80880CBFB0521C3FB03211C
:1033C000C9FB0C21C8FB0621049E4D46C6FB072104
:1033D00083FB0C68DDF82090CBFB0968D146DDF853
:1033E00008A0C9FB0A68DDF80090C9FB0768A94678
:1033F0000E9DCA46C9FB0568B61948EB08080018B7
:10340000129083FB0E3044EB040513950B9D009C3A
:10341000CBFB0530C4FB0C30029C0E96C9FB04307C
:10342000019ECDF84480C6FB0730DB1840EB000757
:1034300015978EFB0947CBFB064706981493009B14
:10344000039EC3FB0047C5FB0647DDF81C80DDF883
:103450001490C8FB0C47029B9218C9FB03478EFBD4
:103460000838CBFB0938814601984941C0FB09382F
:10347000C6FB0A380098C0FB00381846099BC3FBFE
:103480000C08CDF82C800890009BDDF830A083FB61
:103490000E03CBFB0A03C5FB0903019E079DC6FB78
:1034A0000C03DDF80880C5FB080300185B412419F4
:1034B00047EB0705029586FB0E65DDF81080039F3C
:1034C000CBFB0865CAFB0965B946D046DDF800A00C
:1034D000CAFB0765DDF814A0019FCAFB0C658AFBD7
:1034E0000EECDDF824A0B619CBFB0AECDDF818A031
:1034F000DDF810B06D41CBFB0AECC7FB09ECDDF841
:1035000034900B9FC8FB09ECDDF82080DDF840A06B
:1035100018EB080B47EB07091EEB0E0E4CEB0C07E4
:10352000DDF828C0CDF818901CF1007C4AF10009A4
:10353000CDF81CE008974FEA9C6E0E9F4EEA891E5C
:103540001EEB070EDDF844800A9F0CF07C4C48EB24
:10355000A968B7EB0C0C6AEB090912F1007ACDF8F7
:1035600000C0CDF804904FEA9A6C41F100094CEA92
:10357000891C1CEB000C0AF07C4043EBA963121A77
:1035800061EB09011EF18079DDF848A048F10000E7
:103590004FEA596848EAC01818EB0A07DDF84C8072
:1035A00009F07E4948EB6060BEEB09081CF1807EA3
:1035B00043F10003CDF80C804FEA5E6848EAC31877
:1035C00018EB0408029C0EF07E4E44EB636ABCEBE1
:1035D0000E040594029717F10077149B40F1000048
:1035E000BC0EDDF854C044EA8014E4184CEBA06033
:1035F00007F07C4C18F100774AF100034FEA976E10
:103600004EEA831E1EEB060E45EBA36314F1807693
:1036100007F07C4540F100000B95750E45EAC0159A
:10362000AD1841EB60611EF18079CDF824C043F103
:1036300000034FEA596C06F07E404CEAC31C069E1C
:103640001CEB0B0C46EB636315F10076CDF8108094
:1036500041F100011CF10078079A0A9043F1000340
:103660004FEA9860DDF820A040EA831080184AEB0A
:10367000A36310F1807743F100034FEA576B4BEAE5
:10368000C31B5B164FEAC30A4FEACB0212EB0B02D5
:103690004AEA5B7A43EB0A0A92184AEB0A0A12EBEF
:1036A0000B0243EB0A0A009B09F07E49D218019BEA
:1036B00008F07C4843EB0A0312F1007B43F100035E
:1036C0004FEA9B6A4AEA831A039B0BF07C4BB2EBEE
:1036D0000B021AEB030ADDF824B0029B07F07E47C9
:1036E000B3EB0B03DDF828B0B4EB0B04DDF83CB012
:1036F000CBE90234CBE9002AB30E059A43EA8113E1
:1037000006F07C46AE1B99180B9D049BCBE9046127
:103710005C1BBEEB0902BCEB0803C01BCBE90642F5
:10372000CBE9083017B0BDE8F08F00BF2DE9F047B6
:1037300053684E688D68F61A9368CC68ED1AD368A2
:103740000F69E41A1369D1F814C0FF1A5369D1F84C
:1037500018E0ACEB030C9369D1F81C80AEEB030EC0
:10376000D369D1F82090A8EB0308136AD1F800A020
:10377000A9EB03094B6A516A591A1368C0E902544C
:10378000AAEB0303C0E9047CC0E906E8C0E908919C
:1037900046600360BDE8F0872DE9F04F4B6A0F6883
:1037A00003EBC30903EB490989B0D1F804B009F16F
:1037B0008079079007EB69698868D1F80C800BEB7A
:1037C000A969019000EB69690869CDF8088008EBE8
:1037D000A969D1F8148000EB696900260390CDF83F
:1037E000108008EBA969D1F81880D1E907010A46D1
:1037F00008EB696900EBA96901EB696903EBA96949
:103800004FEA696909EBC90109EB4109B944019F14
:103810000BEBA96B07EB6B61029FCDF8189007EBE0
:10382000A169039F0191049907EB6967039701EB75
:10383000A76708EB676800EBA86002EB606132469F
:10384000B446B246B64603EBA16323F07E4305932C
:1038500029F07E492BF07E43DDF804B0CDF80890C6
:1038600021F07C4906992BF07C4BCDF804B020F078
:103870007E4B21F07C4060F3070227F07E41039FDE
:10388000069228F07C48029ACDF810804FEA8718FB
:1038900048EAD24868F3070CDDF81480019F4FEA2C
:1038A000881848EA195868F3070A4FEAA3183546FA
:1038B000344668F307064FEA673868F3070E4FEAA5
:1038C0004218002248EA575868F30F2EDDF810809E
:1038D00061F307054FEAE81868F307044FEA6B380D
:1038E00068F307024FEA091848EA5B5868F30F22A9
:1038F0000192069A4FEA202868F30F224FEAA33874
:1039000068F30F264FEAC70848EA935868F317464A
:1039100090469B0043EA1063001460F3174863F37A
:103920001F684346DDF81C800498C8F800307B11FE
:1039300063F31F66C8F80460039E019AC6F39703F9
:1039400063F30F2C0B1263F30F25C31363F30F24E0
:103950004FEACB0343EAD05363F31744430043EAEF
:103960001163091461F317450599029863F31F6504
:103970008B1063F30F2AC31063F3174EC31263F364
:103980001F6EC6F38F2363F3174CC6F3874363F3AD
:103990001F6C4FEA291363F3174213464FEA293984
:1039A00069F31F6301938B1263F3174A8B1463F35C
:1039B0001F6A4FEA6B1B019B6BF31F64C8F8105022
:1039C000C8F81440C8F808E0C8F80CC0C8F81830A7
:1039D000C8F81CA009B0BDE8F08F00BF00B589B0E1
:1039E00001466846FFF7D8FE9DF8000000F0010090
:1039F00009B05DF804FB00BF00B589B00146684618
:103A0000FFF7CAFE9DF801209DF800309DF80200E6
:103A10009DF80310134303439DF804209DF805000F
:103A20000B4313439DF806109DF8072003430B43F7
:103A30009DF808009DF80910134303439DF80A20E0
:103A40009DF80B000B4313439DF80C109DF80D20BF
:103A500003430B439DF80E009DF80F1013430343DF
:103A60009DF810209DF811000B4313439DF8121090
:103A70009DF8132003430B439DF814009DF8151087
:103A8000134303439DF816209DF817000B4313437F
:103A90009DF818109DF8192003430B439DF81A0058
:103AA0009DF81B10134303439DF81C209DF81D0037
:103AB0000B4313439DF81E1003439DF81F200B4337
:103AC000134314BF0120002009B05DF804FB00BFC0
:103AD00000232DE9F04F83461F4683784178027812
:103AE0001B0443EA01231343C3F31401D0F802304B
:103AF0008279C3F35415C379AFB01B0443EA0223A0
:103B000042791C911343C3F39400DBF807309BF810
:103B10000E20C3F3D416DBF80A309BF81610C3F35B
:103B2000141C9BF80F301D951B0443EA02239BF8DD
:103B30000D201E901343C3F3540EDBF80F309BF897
:103B40001520C3F394189BF817301F961B0443EA03
:103B500001231343C3F31409DBF81730CDF880C0F9
:103B6000C3F354129BF81C300C929BF81B201B04CF
:103B700043EA02239BF81A20CDF884E01343C3F3F1
:103B80009401DBF81C30CDF82880CDF82C900D91F5
:103B9000C3F3D415DBF81F309BF82320C3F3141CA8
:103BA0009BF824309BF82B101B0443EA02239BF85C
:103BB00022209BF813401343C3F35408DBF824304E
:103BC0009BF82A20C3F394100E90DBF831009BF889
:103BD0002C30C0F3D41001901B049BF8140043EA6E
:103BE000012313430004C3F3140640EA04209BF8A6
:103BF00012400F96DBF83C60DFF870A32043F60814
:103C0000C008DBF82C3017901B97A6FB0A07C3F3FC
:103C1000541E9BF831309BF8302040194FEA034383
:103C2000D34D43EA02239BF82F20A6FB055A43EA13
:103C300002039BF82920C3F394019BF828304FEA34
:103C4000024247F1000742EA032315EB0C059BF8FB
:103C50002720DFF820C343EA0203A6FB0C4CCDF873
:103C600040E04FEAD30E9BF839309BF838204FEAFA
:103C7000034343EA02234AF1000A9BF8372014EB7E
:103C800008044CF1000802911343DBF83910DBF80B
:103C900034201197CDF84880DFF8DC820F9FA6FB17
:103CA00008C9DDF83880A9EB06091CEB0808CDF837
:103CB0003880DFF8C88249F10009A6FB088C1EEBAA
:103CC00008084CF1000ECDF84CE0DFF8B4E2C1F387
:103CD0009411A6FB0EEC1EEB070EACEB060C4CF1A0
:103CE000000CCDF850C0DFF884C2CDF83CE0A1FB59
:103CF0000CE6DDF834C0C3F354031EEB0C0E46F1A2
:103D000000060D969A4EC2F31412A1FB06C71CEBD7
:103D1000000C3846119F47EB00079648A1FB0006B0
:103D200040194AEB060ACDF844A0DFF84CA2A1FBEB
:103D30000AA51AEB0406129CA5EB010545EB040449
:103D40008E4D1294A1FB054A15960E9EA41949EBBF
:103D50000A060E968A4EA1FB06A91AEB0808CDF8B2
:103D60005880DDF84C80A9EB0109804949EB08082F
:103D7000CDF84C80A3FB0189DDF830A07C4E18EB18
:103D80000A08A3FB06A10D9E49F100091AEB0E0ECD
:103D900046EB01067749A3FB011A11EB0C01DFF892
:103DA000D8C147EB0A0AA3FB0CC71CEB00000C9020
:103DB0001198A7EB030747EB0007A3FB050C159D24
:103DC0004019129D45EB0C05DFF8B4C10D95A3FB1E
:103DD0000CC51CEB040CCDF844C00E9CDFF88CC164
:103DE000A5EB030545EB0404A2FB0C5C0B9B0E94B6
:103DF0005F4CED18A2FB04434CF1000C14EB0804DB
:103E0000DFF8708149EB0309A2FB083813EB0E03BE
:103E100046EB0808584EA2FB06E61EEB01010B918B
:103E20005649A6EB0206A2FB011E46EB0A061296B5
:103E30000C9E891947EB0E0ADFF844E10D9EA2FBA8
:103E40000EE71EEB0000A7EB020747EB06060D96F8
:103E5000DFF818E1019E0C90A6FB0E7E1798C7199B
:103E600043484EF1000EA6FB00024019414D4CEBB9
:103E7000020CA6FB0525121949EB050935463E4EF5
:103E8000A5FB0654ED18019B1595A4EB030444EB28
:103E90000804DFF8E8800B9EA3FB08359B19129EEF
:103EA0000B9346EB0508019B354EA3FB0665711885
:103EB000A5EB0305019145EB0A062C49DDF808A0A6
:103EC0001296AAFB01560A9BED185346DFF8A0A0F4
:103ED00046F10006A3FB0AA11AEB07074EEB010E01
:103EE0002449A3FB011A091823484CEB0A0CA3FB35
:103EF00000A01AEB020AA0EB030040EB09021846EF
:103F00000A921E4AA3FB0229159BD21844EB090909
:103F10001B4CA0FB04340B981B180B93029BA4EBC7
:103F2000030444EB080815F58014CDF8088046F129
:103F300000034FEA545848EAC32818EB07086FF308
:103F400014044EF100072D1B66EB030611F58014D7
:103F5000229523964FEA54554CF100060A9B45EAF8
:103F6000C62515EB0A0E6FF314040BE0132C0A00A0
:103F7000182D070067FB090053C6F0FFD11502009A
:103F80008390F5FF43F10000B1EB040A6CEB0606E9
:103F900012F5801449F100010B9B650D45EAC1251E
:103FA0001596EE18029D4FEA54534FEA435345EBE2
:103FB0006154D21A029269EB0102DDF804900B926F
:103FC000CDF828A0DDF848A019F580120C9D4AF123
:103FD0000001530D43EAC1235B190D9D6FF31402D9
:103FE00045EB61550D95B9EB02056AEB0101DDF872
:103FF00044A0DDF838901AF5801201950C9349F130
:104000000005169B1291510D41EAC521C918119165
:1040100013996FF3140241EB6551BAEB020ACDF824
:1040200038A069EB050ADDF83C90149B19F5801265
:1040300043F1000C109DCDF84CA04FEA525A4AEAC9
:10404000CC2A1AEB050A6FF314024FEA6C5545F1BE
:104050000005B9EB020963EB0C02109218F580120F
:104060000A9BCDF83C904FEA525C47F100094CEABC
:10407000C92C1CEB030CCDF890C0DDF854C06FF3D5
:1040800014024CF1000CB8EB020867EB09071EF5AF
:104090008012029BCDF894C0279740F1000C570D79
:1040A000CDF8988047EACC27DDF82C80FB186FF319
:1040B000140248EB6C57BEEB020260EB0C002A9234
:1040C00016F5801228932997019B44F100072B9045
:1040D000500D40EAC720C018019012980C9B6FF356
:1040E0001402DDF834C040EB6750B61A86462C96B1
:1040F00064EB070613F580104CF100022D96440D79
:104100000E9EDDF84C8044EAC224A61948EB6258A2
:10411000C1466FF31400B3EB0008CDF83880DDF82A
:1041200044806CEB020018F580130F9F41F10004EE
:104130005A0D0D9042EAC4221098D2196FF314035D
:1041400040EB6450DFF848C3B8EB0303DFF8448367
:1041500061EB0401CAF1000408FB05470CFB0544B0
:10416000109454420F9708FB00470CFB0044129434
:104170005C42119708FB01470CFB01440B96149419
:1041800074424E4608FB0949CDF85490B1460C964E
:1041900066460CFB094C13970E9FCDF858C0DDF80E
:1041A00034C07C4208FB0C49CDF85C9006FB0C49FE
:1041B000019CDFF8E4C2644208FB0E48CDF864803D
:1041C00006FB0E48CDF86090AAFB0C79CDF868800C
:1041D000DFF8C8820CFB0599C446AAFB0868219C3D
:1041E0000CFB05883F190293CDF828E0229CDDF8EE
:1041F0008CE049F10009361948EB0E08DFF8A0E21F
:10420000269BAAFB0EC41CEB030CCDF884C0DFF880
:1042100094C20EFB0544E646279B44EB030422941C
:10422000AAFB0C4C0EFB05CCDFF868E2249BAAFB32
:104230000E5EED1823950F9D2A9BAE44259D4EEBF7
:10424000050E2B9DE4184CEB050C914DAAFB053A8D
:10425000289D5B19109D0F93AA44299D209B4AEB32
:10426000050ACDF840A0DFF830A2A2FB0A5AEB18ED
:10427000894D05FB00AA4AF1000ACDF880A0DFF8BD
:104280001CA2A2FB0A5AED19844F249507FB00AA31
:10429000834D4AEB090AA2FB059705FB007719EB52
:1042A000060647EB0808CDF89880DFF8F8812596D8
:1042B000A2FB086708FB0077DFF8D881A946A2FBBC
:1042C0000808219D4019119D2190A844229D029823
:1042D00048EB0508239D761947EB0E07DFF8B0E1A0
:1042E000A2FB0E2512191192129A1F9C2A4442EB2E
:1042F0000C0EDFF8A4C1CDF848E0E646A0FB0CC5E3
:10430000664A1CEB040C0EFB0155A0FB024E45F166
:104310000005E4184B4602FB01EE209A4EEB020E1C
:10432000A0FB099203FB01222498029B19EB0009D0
:1043300042EB0A00DFF86CA1CDF87C90A3FB0A29C0
:104340000AFB0191DFF84CA12090A3FB0AA9259B51
:1043500021981AEB030A139B9944269B49EB030906
:104360001218029B41EB08084949A3FB0131981937
:10437000149B0B9E0B4443EB0701029146491E9B85
:10438000A6FB016713900C98F31801FB00770B9EB6
:1043900042481493A6FB00310C9E47F1000700FB36
:1043A000061113EB0C0341EB0501DFF8F4C00B9D84
:1043B0001E91A5FB0C0104190C980B940CFB001129
:1043C00041EB0E060C962E46DFF8D8E0A5FB0E1C3E
:1043D0000EFB00CC2F48DDF854E0A5FB00041F9D28
:1043E00074444019209D44EB050411EB0A05DFF8E5
:1043F000A0A04CEB090CA6FB0AE91EEB02021F92DF
:10440000169ADDF838A04A4442EB0808CDF85880E7
:10441000DFF884801595AAFB082E1D9D0D99521971
:1044200008FB01EE4EF100050D951C4D149EAAFBF4
:10443000058E05FB01EE5546DFF864A018EB060675
:104440004EEB0707A5FB0A8E18EB0308CDF8388062
:104450000AFB01EE8846AA461E9B4EEB030114910F
:104460001049DFF830E0A5FB019501FB0855D04667
:10447000AAFB0E3A0B99DDF85CE05B180C99F2444C
:104480004AEB010A19EB0009014845EB04050BE072
:104490008390F5FF53C6F0FF132C0A00182D070078
:1044A00067FB0900D1150200A8FB000415990B95C4
:1044B000189D4118DFF858830C9105EB040141EB7E
:1044C0000C004146019DDFF84CC31590A5FB0C0E76
:1044D0001C9CA5FB088500190A9C0CFB04EEA44655
:1044E00001FB04550D9C4EF1000E18EB020845EB44
:1044F0000405019AC84CA2FB041204FB0C22019C87
:10450000DFF818C3891942EB0707A4FB0C260A9CA5
:104510000CFB0464C24E0A94019CA4FB06C40E9ECC
:104520001CEB060C199E3444149E44EB0604D2186E
:104530000A9B43EB0A06019BDFF8E8A2A3FB0A3AB9
:1045400013EB0909CDF80490DDF86890D144DDF84B
:104550002CA049EB0A09CDF8289010F580194EF1EE
:1045600000034FEA595A4AEAC32A1AEB08086FF3C4
:10457000140945EB6355B0EB09000B906EEB03009B
:1045800011F5801947F1000E0D904FEA595040EA9D
:10459000CE2010EB0C004FEA595C4FEA4C5C44EB28
:1045A0006E54B1EB0C0167EB0E0E12F5801C46F158
:1045B0000007019B0E914FEA5C5141EAC721C918DF
:1045C000CDF850E04FEA5C53DDF828E0DDF830A08C
:1045D0004FEA4353DDF854C04EEB675ED21A0192A6
:1045E00066EB07021AF580131F9F0A924FEA535693
:1045F0004CF10002DDF8589046EAC226F6196FF336
:10460000140349EB62590C96BAEB0306DDF84CA093
:104610001596029E6CEB020C1AF5801346F100020F
:10462000119F5E0DCDF858C046EAC226DDF848C09D
:10463000F7196FF31403029E4CEB625CBAEB030AAA
:1046400066EB02020F9ECDF848A0DDF840A0029272
:1046500016F580124AF100061197530D2C9F43EA7C
:10466000C623DB1910932D9F0F9B6FF3140247EBAA
:1046700066579A1A6AEB060A0F9218F580120E9B7B
:10468000CDF84CA04FEA525645F1000A46EACA2638
:10469000F6180E96149E6FF3140246EB6A56B8EBAA
:1046A000020865EB0A0A10F58012019B14964FEA86
:1046B000525544F1000645EAC625ED180A9B6FF3F2
:1046C000140243EB6653821A0A9264EB06021792B5
:1046D00011F580124EF100040193500D159B169EAA
:1046E00040EAC420C31846EB64506FF314020C9EDA
:1046F000891A18916EEB040116F580121593169025
:10470000129B49F100001991510DDDF808E041EAD2
:10471000C021C9184EEB605E6FF31402CDF808E0BB
:10472000B6EB020E119E69EB000916F580120F9C84
:104730004CF100000C91510DCDF848E041EAC02148
:10474000DDF84CE0109B09196FF314024EEB605E2C
:10475000B61A6CEB000C0F9113F580114FEA515211
:104760006FF314011396CDF870C047F10006B3EB58
:10477000010C67EB060742EAC622CDF844E0CDF80B
:1047800040C01D97DFF88CC0264FDFF894E0761507
:1047900053420EFB063E07FB06336746A2FB0C1C8A
:1047A0000B9807FB06CC09180D98CDF868904CEBD8
:1047B000000C4FEA5159C1F3140015490D900F46F2
:1047C000A2FB010107FB061110EB080041EB0A01F7
:1047D000DFF844A00E9CA2FB0A780AFB06883F196A
:1047E000DFF838A0149C0B9048EB0408A2FB0A04E5
:1047F0000AFB06440A4E0E90A2FB066A0A98D644AB
:10480000DDF85CA036184EEB0A0E0E980CE000BFE7
:10481000182D0700132C0A0067FB0900D1150200B0
:1048200053C6F0FF8390F5FFDFF888A34519A2FB7C
:104830000A2A0198534444EB0004189849EACC2909
:104840001218199843EB00030B9819EB000041EB89
:104850006C514FEA505C4CEAC12C1CEB070C48EB46
:104860006151C0F314074FEA5C5040EAC12080193F
:104870004EEB6151460D46EAC126751944EB615471
:10488000C0F314010A91690D41EAC42189184FF05F
:10489000000EC5F3140243EB64530B924D0D159AB1
:1048A000169E45EAC325AD18129C46EB6352680D6F
:1048B0001A9E40EAC2200019C1F314010C9B46EB7A
:1048C00062520E91410DC5F3140641EAC221029DC8
:1048D000C918139C45EB6252C0F31405480D0295AC
:1048E00040EAC2201C9D00190F9B45EB62521296B4
:1048F000C1F31406410D119D41EAC221C91845EBCF
:1049000062524B0DC0F3140510980F9543EAC22371
:104910001D9D1B1845EB6252CCF31408C1F3140C17
:10492000590D41EAC221A4485215C1F1000900FB0A
:10493000029A0C96A1FB0060CDF80480CDF840C02F
:10494000DFF87882DFF86CC2C3F314041194A1FB82
:104950000C530CFB02991390A1FB080C0D9C1493B3
:1049600000194FEA5053C0F314000D9060F3070E86
:104970004FEA102060F30F2ECDF80CE0DFF840E294
:1049800008FB02CCA1FB0E404CF1000C0EFB020018
:10499000DFF830E243EACC2315937346E419A1FB18
:1049A0000E7E03FB02EE019B40F10000FF180A9B04
:1049B0004EF1000EF618139B4AEB030A824BA1FB43
:1049C000031803FB02820B9BC9180E9B42F10008DF
:1049D000ED18159A149B49EB0303141940EB6C5026
:1049E0004FEA545C4CEAC02C1CEB070C4EEB6050B9
:1049F0004FEA5C5242EAC02296194AEB6050720DAF
:104A000042EAC022521848EB60504FEA525949EA34
:104A1000C02919EB050943EB60534FEA5951C2F322
:104A20001400129A41EAC32189184FEA6353DDF852
:104A300008A043F100034FEA515848EAC32818EB95
:104A40000A084FEA6353DDF830A043F100034FEA50
:104A5000585E4EEAC32E1EEB0A0E4FEA63530F9DBB
:104A600043F100034FEA5E5242EAC32252194FEA71
:104A70006353109D43F10003570D47EAC3277F1985
:104A8000C2F314024FEA6353029243F10003119AF6
:104A90007D0D45EAC325AD184FEA635343F100038A
:104AA000002201930023C7F314074FEAC51AC4F389
:104AB00014044AEA973ACCF3140C6AF307024FEA5B
:104AC000D42A6AF307034FEA8C0A4AEAD44A6AF303
:104AD0000F2304930023C6F314064FEA560A6AF321
:104AE000070305930023C9F314094FEA103A6AF348
:104AF00007034FEA490A4AEA105A6AF30F2306935A
:104B00000023C1F314014FEA910A6AF307030793E4
:104B10000023C8F314084FEA583A6AF307039A4689
:104B20000023CEF3140E6EF30F2ACDF820A0DDF88B
:104B300008A04FEADA0A6AF307030993019B4FEAD8
:104B4000550A4AEAC37A6AF30F2213460D9A4FEACE
:104B5000441A4AEA124A039AE4086AF3174264F3D1
:104B60001F62CBF80020DDF814A0740A64F30F2A4A
:104B7000040144EA564464F3174A5446000960F3BA
:104B80001F64CBF80840079C880A60F30F244FEAA3
:104B9000C80040EA914060F3174420464FEA581895
:104BA000069C8901029A41EAD93168F31F604FEAF5
:104BB000D9190BE08390F5FF53C6F0FF132C0A00C0
:104BC000182D070067FB0900D115020069F317448F
:104BD000CBF81000099861F31F64D10A61F30F202C
:104BE000B90041EAD24161F317400146DDF810A057
:104BF000F60146EA9C364FEA9C1C6CF3174AD446F1
:104C0000BF09DDF820A0520142EA1E4267F31F618E
:104C10004FEA1E2E6EF3174ACBF81810019962F373
:104C20001F6A6A0A42EAC1526D0C62F3174345EAF1
:104C3000C13566F31F6C65F31F63CBF804C0CBF876
:104C40000C40CBF814A0CBF81C302FB0BDE8F08F8F
:104C50000000000000000000000000000000000054
:104C60000000000000000000000000000000000044
:104C700022AE28D7982F8A42CD65EF239144377111
:104C80002F3B4DECCFFBC0B5BCDB8981A5DBB5E983
:104C900038B548F35BC2563919D005B6F111F15950
:104CA0009B4F19AFA4823F9218816DDAD55E1CAB81
:104CB000420203A398AA07D8BE6F7045015B831216
:104CC0008CB2E44EBE853124E2B4FFD5C37D0C55D1
:104CD0006F897BF2745DBE72B196163BFEB1DE80C9
:104CE0003512C725A706DC9B942669CF74F19BC1BA
:104CF000D24AF19EC1699BE4E3254F388647BEEF57
:104D0000B5D58C8BC69DC10F659CAC77CCA10C240E
:104D100075022B596F2CE92D83E4A66EAA84744A80
:104D2000D4FB41BDDCA9B05CB5531183DA88F976B8
:104D3000ABDF66EE52513E981032B42D6DC631A8ED
:104D40003F21FB98C82703B0E40EEFBEC77F59BFD1
:104D5000C28FA83DF30BE0C625A70A934791A7D5BC
:104D60006F8203E05163CA06706E0E0A6729291428
:104D7000FC2FD246850AB72726C9265C38211B2E70
:104D8000ED2AC45AFC6D2C4DDFB3959D130D38539D
:104D9000DE63AF8B54730A65A8B2773CBB0A6A76B0
:104DA000E6AEED472EC9C2813B358214852C729246
:104DB0006403F14CA1E8BFA2013042BC4B661AA8C3
:104DC0009197F8D0708B4BC230BE5406A3516CC77C
:104DD0001852EFD619E892D110A96555240699D634
:104DE0002A20715785350EF4B8D1BB3270A06A10F5
:104DF000C8D0D2B816C1A41953AB4151086C371EA4
:104E000099EB8EDF4C774827A8489BE1B5BCB034BE
:104E1000635AC9C5B30C1C39CB8A41E34AAAD84EA0
:104E200073E363774FCA9C5BA3B8B2D6F36F2E6867
:104E3000FCB2EF5DEE828F74602F17436F63A5782D
:104E400072ABF0A11478C884EC39641A0802C78CDC
:104E5000281E6323FAFFBE90E9BD82DEEB6C50A4EE
:104E60001579C6B2F7A3F9BE2B5372E3F27871C677
:104E70009C6126EACE3E27CA07C2C021C7B886D1A8
:104E80001EEBE0CDD67DDAEA78D16EEE7F4F7DF570
:104E9000BA6F1772AA67F006A698C8A2C57D630A02
:104EA000AE0DF9BE04983F111B471C13350B711B47
:104EB000847D0423F577DB289324C7407BABCA327B
:104EC000BCBEC9150ABE9E3C4C0D109CC4671D4358
:104ED000B6423ECBBED4C54C2A7E65FC9C297F5988
:104EE000ECFAD63AAB6FCB5F1758474A8C19446C33
:104EF00059F1B2FE0AE5A6FF7BDD2AFE1E14D4009E
:104F00005280030030D1F300777940FF32E39CFFF9
:104F1000006EC501671B9000B0A00EFED3C986FFCE
:104F20009E188F007F693500600CBD00A7D7FBFF7E
:104F30009F4C80FE6A65E1FF1EFC0400920CAE00EF
:104F4000B67859FF8572D300BD6E15FF0F0A6A004F
:104F500029C0010098E879FFBC3CA0FF9971CEFF01
:104F600000B7E2FEB40D48FF853B8C01BDF124FF84
:104F7000F825C30160DC3700B74C3EFFC3423D005B
:104F8000324CA401E1A44CFF4C3DA3FF753E1F0031
:104F9000519140FF76410E00A273D6FF068A2E0083
:104FA0007CE6F4FF0A8A8F00341AC200B8F44C0081
:104FB000818F2901BEF413FF7BAA7AFF628144002E
:104FC00079D5930056651EFFA1679B008C5943FF5E
:104FD000EFE5BE01430BB500C6F089FEEE45BCFF10
:104FE0004397EE00132A6CFFE5557101324487FFA9
:104FF000116A0900326701FF5001A80123981EFFC2
:1050000010A8B9013859E8FF65D2FC0029FA470019
:10501000CCAA4FFF0E2EEFFF504DEF00BDD64BFF39
:10502000118DF90026504CFFBE55750056E4AA00BC
:105030009CD8D001C3CFA4FF96424CFFAFE110FF34
:105040008D5062014CDBF200C6A272002EDA98008D
:105050009B2BF1FE9BA068FF33BBA5000211AF00A4
:105060004254A001F73A1E00234135FE45ECBF0033
:105070002D86F501A37BDD00206E14FF3417A500FB
:10508000BAD64700E9B06000F2EF360139598A001C
:10509000530054FF88A064005C8E78FE687CBE00DC
:1050A000B5B13EFFFA29550098822A0160FCF6004E
:1050B00097973FFEEF853E0020389C002DA7BDFF4F
:1050C0008E85B3018356D300BBB396FEFAAA0EFFBA
:1050D000D2A34E0025349700634D1A00EE9CD5FFF5
:1050E000D5C0D101492E54001441290136CE4F00BC
:1050F000C98392FEAA6F18FFB12132FEAB26CBFF07
:105100004EF77400D1DD99008580B2013A2C190068
:10511000C9273B01BD13FC0031E5D20175BB750009
:10512000B5B3B8010072DB00305E9300F52938009A
:105130007D0DCCFEF4AD77002CDD20FE54EA14008A
:10514000F9A0C601EC7EEAFF2F63A8FEAAE299FF50
:1051500066B3D800E28D7AFF7A4299FEB6F58600F2
:10516000E3E41901D639EBFFD8AD38FFB5E7D2003B
:1051700077809DFF815F88FF6E7E330002A9B7FFB5
:10518000078262FE45B05EFF7404E301D9F291FF2D
:10519000CAAD1F01690127FF2EAF4500E42F3AFF7A
:1051A000D7E045FECF3845FF10FE8BFF17CFD4FF69
:1051B000CA147EFF5FD560FF09B02100C805CFFF8C
:1051C000F12A80FE2321C0FFF8E5C4018111780097
:1051D000FB6797FF073470FF8C3842FF28E2F5FF2A
:1051E000D94625FEACD609FF4843860192C0D6FFBA
:1051F0002C26700044B84BFFCE5AFB0095EB8D0077
:10520000B5AA3A0074F4EF005C9D020066AD62003E
:10521000E98960017F31CB00059B9400179409FF59
:10522000D37A0C0022861AFFDBCC8800860829FF7F
:10523000E0532BFE5519F7006D7F00FEA988300062
:10524000EE77DBFFE7ADD500CE12FEFE08BA07FF12
:105250007E0907016F2A48006F34ECFE603F8D0025
:1052600093BF7FFECD4EC0FF0E6AED01BBDB4C004D
:10527000AFF3BBFE6959AD0055195901A2F3940073
:105280000276D1FE219E09008BA32EFF5D462800E9
:105290006C2A8EFE6FFC8EFF9BDF900033E5A7FF2C
:1052A00049FC9BFF5E740CFF98A0DAFF9CEE25FF83
:1052B000B3EACFFFC500B3FF9AA48D00E1C4680034
:1052C0000A2319FED1D4F2FF61FDDEFEB865E500C8
:1052D000DE127F01A48887FF1ECF8CFE9261F3004F
:1052E00081C01AFEC95421FF6F0A4EFF9351B2FFCD
:1052F00004041800A1EED7FF068D210035D70EFF5C
:1053000029B5D0FFE78B9D00B3CBDDFFFFB971005E
:10531000BDE2ACFF7142D6FFCA3E2DFF664008FFDA
:085320004EAE10FE857544FF3E
:0400000508000041AE
:00000001FF
